{
  "contractName": "TimeLockedWallet",
  "abi": [
    {
      "inputs": [
        {
          "internalType": "address",
          "name": "_creator",
          "type": "address"
        },
        {
          "internalType": "address",
          "name": "_owner",
          "type": "address"
        },
        {
          "internalType": "uint256",
          "name": "_unlockDate",
          "type": "uint256"
        }
      ],
      "stateMutability": "nonpayable",
      "type": "constructor"
    },
    {
      "anonymous": false,
      "inputs": [
        {
          "indexed": false,
          "internalType": "address",
          "name": "from",
          "type": "address"
        },
        {
          "indexed": false,
          "internalType": "uint256",
          "name": "amount",
          "type": "uint256"
        }
      ],
      "name": "Received",
      "type": "event"
    },
    {
      "anonymous": false,
      "inputs": [
        {
          "indexed": false,
          "internalType": "address",
          "name": "_recovered",
          "type": "address"
        }
      ],
      "name": "WithdrawAddress",
      "type": "event"
    },
    {
      "anonymous": false,
      "inputs": [
        {
          "indexed": false,
          "internalType": "address",
          "name": "to",
          "type": "address"
        },
        {
          "indexed": false,
          "internalType": "uint256",
          "name": "amount",
          "type": "uint256"
        }
      ],
      "name": "Withdrew",
      "type": "event"
    },
    {
      "anonymous": false,
      "inputs": [
        {
          "indexed": false,
          "internalType": "address",
          "name": "tokenContract",
          "type": "address"
        },
        {
          "indexed": false,
          "internalType": "address",
          "name": "to",
          "type": "address"
        },
        {
          "indexed": false,
          "internalType": "uint256",
          "name": "amount",
          "type": "uint256"
        }
      ],
      "name": "WithdrewTokens",
      "type": "event"
    },
    {
      "stateMutability": "payable",
      "type": "fallback"
    },
    {
      "inputs": [],
      "name": "createdAt",
      "outputs": [
        {
          "internalType": "uint256",
          "name": "",
          "type": "uint256"
        }
      ],
      "stateMutability": "view",
      "type": "function"
    },
    {
      "inputs": [],
      "name": "creator",
      "outputs": [
        {
          "internalType": "address",
          "name": "",
          "type": "address"
        }
      ],
      "stateMutability": "view",
      "type": "function"
    },
    {
      "inputs": [
        {
          "internalType": "address",
          "name": "",
          "type": "address"
        }
      ],
      "name": "nonces",
      "outputs": [
        {
          "internalType": "uint256",
          "name": "",
          "type": "uint256"
        }
      ],
      "stateMutability": "view",
      "type": "function"
    },
    {
      "inputs": [],
      "name": "owner",
      "outputs": [
        {
          "internalType": "address",
          "name": "",
          "type": "address"
        }
      ],
      "stateMutability": "view",
      "type": "function"
    },
    {
      "inputs": [],
      "name": "unlockDate",
      "outputs": [
        {
          "internalType": "uint256",
          "name": "",
          "type": "uint256"
        }
      ],
      "stateMutability": "view",
      "type": "function"
    },
    {
      "inputs": [
        {
          "internalType": "address",
          "name": "userAddress",
          "type": "address"
        },
        {
          "internalType": "bytes32",
          "name": "r",
          "type": "bytes32"
        },
        {
          "internalType": "bytes32",
          "name": "s",
          "type": "bytes32"
        },
        {
          "internalType": "uint8",
          "name": "v",
          "type": "uint8"
        }
      ],
      "name": "withdraw",
      "outputs": [],
      "stateMutability": "nonpayable",
      "type": "function"
    },
    {
      "inputs": [
        {
          "internalType": "address",
          "name": "_tokenContract",
          "type": "address"
        },
        {
          "internalType": "address",
          "name": "userAddress",
          "type": "address"
        },
        {
          "internalType": "bytes32",
          "name": "r",
          "type": "bytes32"
        },
        {
          "internalType": "bytes32",
          "name": "s",
          "type": "bytes32"
        },
        {
          "internalType": "uint8",
          "name": "v",
          "type": "uint8"
        }
      ],
      "name": "withdrawTokens",
      "outputs": [],
      "stateMutability": "nonpayable",
      "type": "function"
    },
    {
      "inputs": [],
      "name": "info",
      "outputs": [
        {
          "internalType": "address",
          "name": "",
          "type": "address"
        },
        {
          "internalType": "address",
          "name": "",
          "type": "address"
        },
        {
          "internalType": "uint256",
          "name": "",
          "type": "uint256"
        },
        {
          "internalType": "uint256",
          "name": "",
          "type": "uint256"
        },
        {
          "internalType": "uint256",
          "name": "",
          "type": "uint256"
        }
      ],
      "stateMutability": "view",
      "type": "function"
    }
  ],
  "bytecode": "0x6080604052604051806080016040528060528152602001620016cb60529139805190602001206040518060400160405280601081526020017f54696d654c6f636b656457616c6c657400000000000000000000000000000000815250805190602001206040518060400160405280600181526020017f310000000000000000000000000000000000000000000000000000000000000081525080519060200120602a30604051602001620000b895949392919062000256565b60405160208183030381529060405280519060200120600555348015620000de57600080fd5b506040516200171d3803806200171d833981810160405281019062000104919062000324565b826000806101000a81548173ffffffffffffffffffffffffffffffffffffffff021916908373ffffffffffffffffffffffffffffffffffffffff16021790555081600160006101000a81548173ffffffffffffffffffffffffffffffffffffffff021916908373ffffffffffffffffffffffffffffffffffffffff160217905550806002819055504260038190555050505062000380565b6000819050919050565b620001b1816200019c565b82525050565b6000819050919050565b600060ff82169050919050565b6000819050919050565b6000620001f9620001f3620001ed84620001b7565b620001ce565b620001c1565b9050919050565b6200020b81620001d8565b82525050565b600073ffffffffffffffffffffffffffffffffffffffff82169050919050565b60006200023e8262000211565b9050919050565b620002508162000231565b82525050565b600060a0820190506200026d6000830188620001a6565b6200027c6020830187620001a6565b6200028b6040830186620001a6565b6200029a606083018562000200565b620002a9608083018462000245565b9695505050505050565b600080fd5b620002c38162000231565b8114620002cf57600080fd5b50565b600081519050620002e381620002b8565b92915050565b6000819050919050565b620002fe81620002e9565b81146200030a57600080fd5b50565b6000815190506200031e81620002f3565b92915050565b60008060006060848603121562000340576200033f620002b3565b5b60006200035086828701620002d2565b93505060206200036386828701620002d2565b925050604062000376868287016200030d565b9150509250925092565b61133b80620003906000396000f3fe60806040526004361061007f5760003560e01c80638d8651db1161004e5780638d8651db1461017d5780638da5cb5b146101a6578063cf09e0d0146101d1578063fc95840c146101fc57610080565b806302d05d3f146100bb578063370158ea146100e657806369ac5721146101155780637ecebe001461014057610080565b5b7f88a5966d370b9919b20f3e2c13ff65706f196a4e32cc2c12bf57088f8852587433346040516100b1929190610bdc565b60405180910390a1005b3480156100c757600080fd5b506100d0610225565b6040516100dd9190610c05565b60405180910390f35b3480156100f257600080fd5b506100fb610249565b60405161010c959493929190610c20565b60405180910390f35b34801561012157600080fd5b5061012a6102ae565b6040516101379190610c73565b60405180910390f35b34801561014c57600080fd5b5061016760048036038101906101629190610cbf565b6102b4565b6040516101749190610c73565b60405180910390f35b34801561018957600080fd5b506101a4600480360381019061019f9190610d5b565b6102cc565b005b3480156101b257600080fd5b506101bb610705565b6040516101c89190610c05565b60405180910390f35b3480156101dd57600080fd5b506101e661072b565b6040516101f39190610c73565b60405180910390f35b34801561020857600080fd5b50610223600480360381019061021e9190610dd6565b610731565b005b60008054906101000a900473ffffffffffffffffffffffffffffffffffffffff1681565b60008060008060008060009054906101000a900473ffffffffffffffffffffffffffffffffffffffff16600160009054906101000a900473ffffffffffffffffffffffffffffffffffffffff1660025460035447945094509450945094509091929394565b60025481565b60046020528060005260406000206000915090505481565b600254421015610311576040517f08c379a000000000000000000000000000000000000000000000000000000000815260040161030890610e9a565b60405180910390fd5b60006040518060400160405280600460008873ffffffffffffffffffffffffffffffffffffffff1673ffffffffffffffffffffffffffffffffffffffff1681526020019081526020016000205481526020018673ffffffffffffffffffffffffffffffffffffffff16815250905060006005546040518060600160405280602b81526020016112db602b913980519060200120836000015184602001516040516020016103c093929190610ec9565b604051602081830303815290604052805190602001206040516020016103e7929190610f78565b604051602081830303815290604052805190602001209050600073ffffffffffffffffffffffffffffffffffffffff168673ffffffffffffffffffffffffffffffffffffffff16141561046f576040517f08c379a000000000000000000000000000000000000000000000000000000000815260040161046690610ffb565b60405180910390fd5b600160009054906101000a900473ffffffffffffffffffffffffffffffffffffffff1673ffffffffffffffffffffffffffffffffffffffff168673ffffffffffffffffffffffffffffffffffffffff16146104ff576040517f08c379a00000000000000000000000000000000000000000000000000000000081526004016104f69061108d565b60405180910390fd5b6001818487876040516000815260200160405260405161052294939291906110bc565b6020604051602081039080840390855afa158015610544573d6000803e3d6000fd5b5050506020604051035173ffffffffffffffffffffffffffffffffffffffff168673ffffffffffffffffffffffffffffffffffffffff16146105bb576040517f08c379a00000000000000000000000000000000000000000000000000000000081526004016105b29061114d565b60405180910390fd5b600087905060008173ffffffffffffffffffffffffffffffffffffffff166370a08231306040518263ffffffff1660e01b81526004016105fb9190610c05565b6020604051808303816000875af115801561061a573d6000803e3d6000fd5b505050506040513d601f19601f8201168201806040525081019061063e9190611199565b90508173ffffffffffffffffffffffffffffffffffffffff1663a9059cbb89836040518363ffffffff1660e01b815260040161067b929190610bdc565b6020604051808303816000875af115801561069a573d6000803e3d6000fd5b505050506040513d601f19601f820116820180604052508101906106be91906111fe565b507fa04c965e7d289704527a948915777d68bb4530fb4b08aa935fb958c0b7901ab98989836040516106f29392919061122b565b60405180910390a1505050505050505050565b600160009054906101000a900473ffffffffffffffffffffffffffffffffffffffff1681565b60035481565b600254421015610776576040517f08c379a000000000000000000000000000000000000000000000000000000000815260040161076d90610e9a565b60405180910390fd5b60006040518060400160405280600460008873ffffffffffffffffffffffffffffffffffffffff1673ffffffffffffffffffffffffffffffffffffffff1681526020019081526020016000205481526020018673ffffffffffffffffffffffffffffffffffffffff16815250905060006005546040518060600160405280602b81526020016112db602b9139805190602001208360000151846020015160405160200161082593929190610ec9565b6040516020818303038152906040528051906020012060405160200161084c929190610f78565b6040516020818303038152906040528051906020012090507f294cdc9763647951cb872c54bfa6a1c8b674bde830aefddec3cbcd85383456cc600182858888604051600081526020016040526040516108a894939291906110bc565b6020604051602081039080840390855afa1580156108ca573d6000803e3d6000fd5b505050602060405103516040516108e19190610c05565b60405180910390a1600073ffffffffffffffffffffffffffffffffffffffff168673ffffffffffffffffffffffffffffffffffffffff161415610959576040517f08c379a000000000000000000000000000000000000000000000000000000000815260040161095090610ffb565b60405180910390fd5b600160009054906101000a900473ffffffffffffffffffffffffffffffffffffffff1673ffffffffffffffffffffffffffffffffffffffff168673ffffffffffffffffffffffffffffffffffffffff16146109e9576040517f08c379a00000000000000000000000000000000000000000000000000000000081526004016109e09061108d565b60405180910390fd5b60018184878760405160008152602001604052604051610a0c94939291906110bc565b6020604051602081039080840390855afa158015610a2e573d6000803e3d6000fd5b5050506020604051035173ffffffffffffffffffffffffffffffffffffffff168673ffffffffffffffffffffffffffffffffffffffff1614610aa5576040517f08c379a0000000000000000000000000000000000000000000000000000000008152600401610a9c9061114d565b60405180910390fd5b8573ffffffffffffffffffffffffffffffffffffffff166108fc479081150290604051600060405180830381858888f19350505050158015610aeb573d6000803e3d6000fd5b50600460008773ffffffffffffffffffffffffffffffffffffffff1673ffffffffffffffffffffffffffffffffffffffff1681526020019081526020016000206000815480929190610b3c90611291565b91905055507fb244b9a17ad633c6e83b7983ee04320484956a68ddbe96a0b70dfca1cf19d7238647604051610b72929190610bdc565b60405180910390a1505050505050565b600073ffffffffffffffffffffffffffffffffffffffff82169050919050565b6000610bad82610b82565b9050919050565b610bbd81610ba2565b82525050565b6000819050919050565b610bd681610bc3565b82525050565b6000604082019050610bf16000830185610bb4565b610bfe6020830184610bcd565b9392505050565b6000602082019050610c1a6000830184610bb4565b92915050565b600060a082019050610c356000830188610bb4565b610c426020830187610bb4565b610c4f6040830186610bcd565b610c5c6060830185610bcd565b610c696080830184610bcd565b9695505050505050565b6000602082019050610c886000830184610bcd565b92915050565b600080fd5b610c9c81610ba2565b8114610ca757600080fd5b50565b600081359050610cb981610c93565b92915050565b600060208284031215610cd557610cd4610c8e565b5b6000610ce384828501610caa565b91505092915050565b6000819050919050565b610cff81610cec565b8114610d0a57600080fd5b50565b600081359050610d1c81610cf6565b92915050565b600060ff82169050919050565b610d3881610d22565b8114610d4357600080fd5b50565b600081359050610d5581610d2f565b92915050565b600080600080600060a08688031215610d7757610d76610c8e565b5b6000610d8588828901610caa565b9550506020610d9688828901610caa565b9450506040610da788828901610d0d565b9350506060610db888828901610d0d565b9250506080610dc988828901610d46565b9150509295509295909350565b60008060008060808587031215610df057610def610c8e565b5b6000610dfe87828801610caa565b9450506020610e0f87828801610d0d565b9350506040610e2087828801610d0d565b9250506060610e3187828801610d46565b91505092959194509250565b600082825260208201905092915050565b7f416d6f756e74206e6f7420756e6c6f636b656400000000000000000000000000600082015250565b6000610e84601383610e3d565b9150610e8f82610e4e565b602082019050919050565b60006020820190508181036000830152610eb381610e77565b9050919050565b610ec381610cec565b82525050565b6000606082019050610ede6000830186610eba565b610eeb6020830185610bcd565b610ef86040830184610bb4565b949350505050565b600081905092915050565b7f1901000000000000000000000000000000000000000000000000000000000000600082015250565b6000610f41600283610f00565b9150610f4c82610f0b565b600282019050919050565b6000819050919050565b610f72610f6d82610cec565b610f57565b82525050565b6000610f8382610f34565b9150610f8f8285610f61565b602082019150610f9f8284610f61565b6020820191508190509392505050565b7f696e76616c69642d616464726573732d30000000000000000000000000000000600082015250565b6000610fe5601183610e3d565b9150610ff082610faf565b602082019050919050565b6000602082019050818103600083015261101481610fd8565b9050919050565b7f43616e206f6e6c79207769746872617720746f206f776e65722061646472657360008201527f7300000000000000000000000000000000000000000000000000000000000000602082015250565b6000611077602183610e3d565b91506110828261101b565b604082019050919050565b600060208201905081810360008301526110a68161106a565b9050919050565b6110b681610d22565b82525050565b60006080820190506110d16000830187610eba565b6110de60208301866110ad565b6110eb6040830185610eba565b6110f86060830184610eba565b95945050505050565b7f696e76616c69642d7369676e6174757265730000000000000000000000000000600082015250565b6000611137601283610e3d565b915061114282611101565b602082019050919050565b600060208201905081810360008301526111668161112a565b9050919050565b61117681610bc3565b811461118157600080fd5b50565b6000815190506111938161116d565b92915050565b6000602082840312156111af576111ae610c8e565b5b60006111bd84828501611184565b91505092915050565b60008115159050919050565b6111db816111c6565b81146111e657600080fd5b50565b6000815190506111f8816111d2565b92915050565b60006020828403121561121457611213610c8e565b5b6000611222848285016111e9565b91505092915050565b60006060820190506112406000830186610bb4565b61124d6020830185610bb4565b61125a6040830184610bcd565b949350505050565b7f4e487b7100000000000000000000000000000000000000000000000000000000600052601160045260246000fd5b600061129c82610bc3565b91507fffffffffffffffffffffffffffffffffffffffffffffffffffffffffffffffff8214156112cf576112ce611262565b5b60018201905091905056fe4d6574615472616e73616374696f6e2875696e74323536206e6f6e63652c616464726573732066726f6d29a2646970667358221220b73718a2e8a3924d6e184eef2699b94ec20cfe8953455fa341eb53f0afc1186d64736f6c634300080a0033454950373132446f6d61696e28737472696e67206e616d652c737472696e672076657273696f6e2c75696e7432353620636861696e49642c6164647265737320766572696679696e67436f6e747261637429",
  "immutableReferences": {},
  "source": "// SPDX-License-Identifier: UNLICENSED\npragma solidity ^0.8.10;\n\n// import \"./ERC20.sol\";\n\n/**\n * @title ERC20\n * @dev see https://github.com/ethereum/EIPs/issues/20\n */\ninterface ERC20 {\n  function balanceOf(address who) external returns (uint256);\n  function transfer(address to, uint256 value) external returns (bool);\n  function allowance(address owner, address spender) external returns (uint256);\n  function transferFrom(address from, address to, uint256 value) external returns (bool);\n  function approve(address spender, uint256 value) external returns (bool);\n\n  event Approval(address indexed owner, address indexed spender, uint256 value);\n  event Transfer(address indexed from, address indexed to, uint256 value);\n}\n\ncontract TimeLockedWallet {\n\n    address public creator;\n    address public owner;\n    uint256 public unlockDate;\n    uint256 public createdAt;\n\n    struct EIP712Domain {\n        string name;\n        string version;\n        uint256 chainId;\n        address verifyingContract;\n    }\n    struct MetaTransaction {\n            uint256 nonce;\n            address from;\n    }\n\n    mapping(address => uint256) public nonces;\n\n    bytes32 internal constant EIP712_DOMAIN_TYPEHASH = keccak256(bytes(\"EIP712Domain(string name,string version,uint256 chainId,address verifyingContract)\"));\n    bytes32 internal constant META_TRANSACTION_TYPEHASH = keccak256(bytes(\"MetaTransaction(uint256 nonce,address from)\"));\n    bytes32 internal DOMAIN_SEPARATOR = keccak256(abi.encode(\n        EIP712_DOMAIN_TYPEHASH,\n            keccak256(bytes(\"TimeLockedWallet\")),\n            keccak256(bytes(\"1\")),\n            42,\n            address(this)\n    ));\n            // 42, // Kovan 1337\n\n    modifier onlyOwner { \n        require(msg.sender == owner);\n        _;\n    }\n\n    constructor(address _creator, address _owner, uint256 _unlockDate) {\n        creator = _creator;\n        owner = _owner;\n        unlockDate = _unlockDate;\n        createdAt = block.timestamp;\n    }\n\n    // keep all the ether sent to this address\n    fallback() payable external { \n        emit Received(msg.sender, msg.value);\n    }\n\n    // callable by owner only, after specified time\n    function withdraw(address userAddress, bytes32 r, bytes32 s, uint8 v) public {\n       require(block.timestamp >= unlockDate, \"Amount not unlocked\");\n\n       MetaTransaction memory metaTx = MetaTransaction({\n            nonce: nonces[userAddress],\n            from: userAddress\n        });\n\n        bytes32 digest = keccak256(\n            abi.encodePacked(\n                    \"\\x19\\x01\",\n                    DOMAIN_SEPARATOR,\n                    keccak256(abi.encode(META_TRANSACTION_TYPEHASH, metaTx.nonce, metaTx.from))\n                )\n            );\n\n        emit WithdrawAddress(ecrecover(digest, v, r, s));\n\n        require(userAddress != address(0), \"invalid-address-0\");\n        require(userAddress == owner, \"Can only withraw to owner address\");\n        require(userAddress == ecrecover(digest, v, r, s), \"invalid-signatures\");\n\n       //block.timestamp send all the balance\n       payable(userAddress).transfer(address(this).balance);\n       nonces[userAddress]++;\n       emit Withdrew(userAddress, address(this).balance);\n    }\n\n    // callable by owner only, after specified time, only for Tokens implementing ERC20\n    function withdrawTokens(address _tokenContract, address userAddress, bytes32 r, bytes32 s, uint8 v) public {\n       require(block.timestamp >= unlockDate, \"Amount not unlocked\");\n\n        MetaTransaction memory metaTx = MetaTransaction({\n            nonce: nonces[userAddress],\n            from: userAddress\n        });\n\n        bytes32 digest = keccak256(\n            abi.encodePacked(\n                    \"\\x19\\x01\",\n                    DOMAIN_SEPARATOR,\n                    keccak256(abi.encode(META_TRANSACTION_TYPEHASH, metaTx.nonce, metaTx.from))\n                )\n            );\n\n        require(userAddress != address(0), \"invalid-address-0\");\n        require(userAddress == owner, \"Can only withraw to owner address\");\n        require(userAddress == ecrecover(digest, v, r, s), \"invalid-signatures\");\n\n       ERC20 token = ERC20(_tokenContract);\n       //block.timestamp send all the token balance\n       uint256 tokenBalance = token.balanceOf(address(this));\n       token.transfer(userAddress, tokenBalance);\n       emit WithdrewTokens(_tokenContract, userAddress, tokenBalance);\n    }\n\n    function info() public view returns(address, address, uint256, uint256, uint256) {\n        return (creator, owner, unlockDate, createdAt, address(this).balance);\n    }\n\n    event Received(address from, uint256 amount);\n    event Withdrew(address to, uint256 amount);\n    event WithdrewTokens(address tokenContract, address to, uint256 amount);\n    event WithdrawAddress(address _recovered);\n}\n",
  "sourcePath": "D:/Documents/myProject/INTERVIEW/biconomy/smart-wallet-assignment/contracts/TimeLockedWallet.sol",
  "compiler": {
    "name": "solc",
    "version": "0.8.10+commit.fc410830.Emscripten.clang"
  },
  "schemaVersion": "3.4.1",
  "updatedAt": "2021-11-22T13:54:39.024Z",
  "devdoc": {
    "kind": "dev",
    "methods": {},
    "version": 1
  },
  "userdoc": {
    "kind": "user",
    "methods": {},
    "version": 1
  }
}